:020000040800F2
:10000000D0250020A50100081F290008752600083A
:100010001D29000885040008BD320008000000000A
:10002000000000000000000000000000A1290008FE
:10003000DB0400080000000021290008A3290008B3
:10004000BF010008BF010008BF010008BF01000890
:10005000BF010008BF010008BF010008BF01000880
:10006000BF010008BF010008BF01000889040008A3
:10007000BF010008BF010008BF010008BF01000860
:10008000BF010008BF010008BF0100080000000018
:10009000000000000000000000000000BF01000898
:1000A000BF010008BF010008BF010008BF01000830
:1000B000BF0100080000000000000000BF010008B0
:1000C000BF010008BF010008BF010008BF01000810
:1000D000BF010008B1320008BF010008BF010008DD
:1000E000BF010008BF010008000000000000000080
:1000F0000000000000000000000000000000000000
:1001000000000000000000000000000000000000EF
:100110000000000000000000BF0100080000000017
:10012000BF010008BF010008BF010008BF010008AF
:10013000BF010008000000000000000000000000F7
:10014000BF010008BF010008BF010008BF0100088F
:1001500095040008A1040008BF010008BF010008C1
:10016000BF010008BF0100080000000000000000FF
:1001700000000000BF0100080000000000000000B7
:10018000BF010008BF010008BF010008DFF810D060
:1001900000F0B8F80048004765350008AFF300806C
:1001A000D02500200648804706480047FEE7FEE7C6
:1001B000FEE7FEE7FEE7FEE7FEE7FEE7FEE7FEE717
:1001C000352A00088D0100082DE9F05F0546002062
:1001D00092469B4688460646814640241BE02846B8
:1001E00041464746224600F07CF853465A46C01A1C
:1001F000914110D311461846224600F063F82D1A9B
:1002000067EB01084F4622460120002100F05AF812
:1002100017EB00094E41201EA4F10104DFDC484623
:1002200031462A46434600F000B830BCBDE8C09FC6
:100230002DE9F0410024061B254671F1000605DA80
:1002400001240027D0EB070067EB0101161E73F1B4
:10025000000605DA0027D2EB0702012567EB03034E
:10026000FFF7B2FF86460E4617469C46AC4204D0C6
:100270000025D0EB050E65EB010624B10020D2EB82
:10028000000760EB030C704631463A466346BDE812
:10029000F081D2B201E000F8012B491EFBD2704779
:1002A0000022F6E710B513460A4604461946FFF742
:1002B000F0FF204610BD421C10F8011B0029FBD1A5
:1002C000801A7047202A04DB203A00FA02F100204D
:1002D00070479140C2F1200320FA03F31943904084
:1002E0007047202A04DB203A21FA02F000217047EF
:1002F00021FA02F3D040C2F120029140084319468E
:1003000070470000064C074D06E0E06840F001032E
:1003100094E8070098471034AC42F6D3FFF73AFF51
:10032000283600084836000810B5846A616D11F05F
:10033000500F06D0616DC90625D5204600F022FC7D
:1003400010BD606D40F400706065206801680907A9
:1003500016D502F0A2F978B12068C06880040028A0
:100360000ADB606D20F480706065606DC00403D4AA
:10037000606D40F001006065204600F06DFB10BD2F
:10038000C0688007EBE7E16C496BBDE810400847A7
:1003900010B5806A416D41F040014165816D41F0C9
:1003A0000401816500F0EEFB10BD10B5806A00F01D
:1003B000E8FB10BD70B50446006881688268C1F32F
:1003C000400112F0010F24D019BB816801F00D012A
:1003D000012910D18168104A1140891C816021686F
:1003E0000320086000F066FF05460EE000F062FFA3
:1003F000401B022809D9606D40F010006065A06DB7
:1004000040F00100A065012070BD20688068C00731
:10041000ECD1002070BD0000C0FFFF7F70B5044626
:100420000068816811F0010F28D18168144A1142D7
:1004300015D18168D5432940491C816000F03AFFFD
:10044000064616E0816811F0010F03D1816829404A
:10045000491C816000F02EFF801B022809D9606DC5
:1004600040F010006065A06D40F00100A065012023
:1004700070BD20680168C943C907E3D1002070BD81
:100480003F000080FEE70000014800F044BD00008E
:10049000F4200020014800F03EBD0000842100202F
:1004A000014800F038BD00003C21002030B590F834
:1004B000444004F01C050124AC40056C6C600468E9
:1004C00063608368102B036803D099600068C26082
:1004D00030BD9A600068C16030BD70477047000051
:1004E000F8B500260446009690F850000D46012805
:1004F0000BD0012084F850002046FFF75BFF01007D
:10050000606D04D040F010002BE00220F8BD20F414
:10051000885040F00200606520688268134B1A40E2
:1005200005F080431A4342F0004282604FF4912369
:1005300020680EE0009A521C00929A4209D3606D26
:1005400020F0020040F01000606584F85060012047
:10055000F8BD8268D20FEDD1606D20F0020040F04E
:100560000100606584F850600846F8BDC0FFFF3F99
:100570002DE9F047044690F850009AB00D464FF030
:100580000008012813D0012084F850002A4E20686A
:100590004FF00009B0420ED1284F0097384602F0C4
:1005A00078F88246206802F074F860B10EE002200C
:1005B0001AB0BDE8F087616D41F02001616584F8F3
:1005C00050900120F4E7BAF1000F09D0606D40F0BF
:1005D000200060654FF0010884F850904046E7E73E
:1005E00017482A6840F61F71002A826822F4604288
:1005F00015D094F8303042EA43326B681A43826077
:10060000B268BB6802F0010203F001031A43E3D1B0
:10061000AB682A681A4383688B431A430AE08260F6
:10062000B268BB6802F0010203F001031A43D3D1A0
:1006300082688A438260CFE70000045000010450C2
:10064000000304502DE9F84F00270446009790F866
:100650005000DFF8D0930D46B846012811D001268E
:1006600084F85060206802F010F860B1606D40F0CE
:10067000200060655FF0010784F85080384600F084
:10068000E7B90220FBE768680C23052812D8022886
:1006900007D0032807D0042807D0052807D0062054
:1006A00007E06B6006E0122003E0182001E04FF441
:1006B00080706860D5E90021206803EA911318442E
:1006C000036B01F01F014FF01F0C0CFA01FCC2F389
:1006D000846223EA0C038A4013430363206801F019
:1006E000D4FF8246206801F0CCFF5AEA000025D1F1
:1006F000AA6829682068B2F1004F20D001F0D5FF28
:100700002068416921F00041416120686969C2683F
:10071000C2F3C102520091402A69042A17D000EBAB
:1007200082002B68026EDFF800C303F0F84302EA90
:100730000C020B431A4342F0004101667AE00022AA
:1007400001F0B3FF2068416941F00041DCE700217E
:1007500001F091FF400320684FF0000172D001F0DA
:100760008AFF90FAA0F0B0FA80F1286842036ED0B8
:1007700090FAA0F0B0FA80F0814204D10022114634
:10078000206801F0A1FF0121206801F074FF4003FF
:1007900020684FF001015DD001F06DFF90FAA0F0EC
:1007A000B0FA80F12868420359D090FAA0F0B0FA6C
:1007B00080F0814204D100220121206801F084FFF1
:1007C0000221206801F057FF400320684FF002012A
:1007D00048D001F050FF90FAA0F0B0FA80F12868FC
:1007E000420344D090FAA0F0B0FA80F0814204D1E4
:1007F00000220221206801F067FF0321206801F038
:100800003AFF400320684FF0030133D001F033FF7B
:1008100090FAA0F0B0FA80F1286842032FD090FA45
:10082000A0F0B0FA80F0814204D1002203212068B8
:1008300001F04AFF2068816811F0010F22D0ACE07E
:1008400000E004E001F017FFC0F384618DE7C0F31E
:10085000846091E701F00FFFC0F38461A2E7C0F369
:100860008460A6E701F007FFC0F38461B7E7C0F337
:100870008460BBE701F0FFFEC0F38461CCE7C0F306
:100880008460D0E72A7B296850F8B03FC1F3120C8E
:1008900023EA0C0302F0180C644A22FA0CF20A4014
:1008A00013430360E968494577D1286841031CD0A8
:1008B00090FAA0F1B1FA81F1491C01F01F01092958
:1008C0004FEA403132D8002912D000BF90FAA0F18F
:1008D000B1FA81F101F1010101F01F0106FA01F6FF
:1008E00009D100BFC0F3846109E0C0F38461E3E78C
:1008F000C0F38461EEE790FAA0F1B1FA81F101F161
:10090000010101F01F0146EA816102D1C0F3846058
:1009100003E090FAA0F0B0FA80F000F1010000F0DE
:100920001F0000EB400041EA005132E000290ED0E8
:1009300090FAA0F1B1FA81F101F1010101F01F017A
:1009400006FA01F606D100BFC0F3846106E0C0F3E9
:100950008461F1E790FAA0F1B1FA81F101F10101AE
:1009600001F01F0146EA816102D1C0F3846003E017
:1009700090FAA0F0B0FA80F000F1010000F01F0042
:100980002B4A00EB400002EB005041EA000141F02D
:100990000071AA68206801F088FE26482A68024291
:1009A0003FF46AAE24488168244D254B01F0E07184
:1009B000AA421AD10D0218D422689A427FF45CAE82
:1009C000826841F4000122F0E0720A4382601D480F
:1009D0001D490068B0FBF1F000EB4000800000E032
:1009E000401E00900028FBD146E6184DAA4207D1D0
:1009F000CD0105D422689A42F6D141F080710AE017
:100A00006FF00045EA42EFD14A02EDD422689A42E3
:100A1000EAD141F48001826822F0E0720A438260E8
:100A20002AE6000000007F4000F0FF03FFFF070000
:100A3000000020FE0000088000030450000052C7A0
:100A4000000004504C000020400D0300000084CB47
:100A500018BCBDE8E08F00002DE9F05F404A00259A
:100A60002C46D5611068D06051680346DFF8F480E9
:100A7000461803E058F823705B1C3C449E42F9DCA6
:100A8000D360C2E9074593684718FE1800EB410C94
:100A9000A9469C44C346166104E000BF5BF826806B
:100AA000761C4544B445F9DC1661944615629246BD
:100AB000621B00EB40044FEA121804EB4104E618F5
:100AC000CCF824904A464418CCF8308004EB440417
:100AD00015461C44D946CAF8146003E059F826C0EC
:100AE000761C6544B442F9DCCAF8146007EB47068B
:100AF000544606EB4306CAF8186000EB4000C4E910
:100B0000095200EB81004F4600EB430004E000BFB8
:100B100057F82610761C0A44B042F9DC501B000935
:100B2000A661C4E90A20404400EB401200230E48AD
:100B30000121FFF77DFB0246606309480BA13830B5
:100B400002F0BEFB06483830FFF7B5FB00F014B8E2
:100B5000034982B201233831064801F02FBD00005D
:100B60000000002050000020006DA87A256C640D64
:100B70000A0000007420002030BCBDE8C05FFFF711
:100B8000E7BF704770470000F8B54FF0000504005C
:100B90002E46009502D0606D10B107E00120F8BD2F
:100BA000204600F0CFF8A66584F850602068816880
:100BB000C1F3407119B18168594A114081602068C0
:100BC0008168C1F3007179B98168564A114041F0DA
:100BD00080518160544855490068B0FBF1F000E055
:100BE000401E00900028FBD120688168C1F300718D
:100BF00041B9616D41F010016165A16D41F00101E4
:100C0000A165012501F041FD616DC90600D430B137
:100C1000606D40F01000606501252846F8BD606DEC
:100C200020F4807040F0020060652068806810F059
:100C3000010F10D13E4880683E4900F001008968EC
:100C400001F00101084306D13B486168826822F443
:100C50007C120A438260E168606B627E0843A1688F
:100C600041EA4231084394F8201040EA014001294A
:100C700004D1A18C314A02EB41410843A16A29B158
:100C800001F47071E26A014342EA01002168CA6816
:100C90002B4B1A400243CA60206801F0F6FC06465E
:100CA000206801F0EEFC304315D1207E94F830101E
:100CB000800340EA41022168C86844F20203984375
:100CC0001043C86094F8380001280CD020680169EE
:100CD00021F001010161206901282068016B21F0E8
:100CE0000F0111D013E0D4E90F010843D4E9111228
:100CF0001143084321680A6940F2FC739A43104388
:100D000040F001000861E6E7E269521E1143016309
:100D1000606D20F0020040F0010060657DE700009A
:100D2000C0FFFF5FC0FFFF7F4C000020400D0300AD
:100D30000000045000010450000304500000FEFFB6
:100D400007C0F0FF70B586B0054614216846FFF76E
:100D5000A7FA1D492868884234D11C49C86C40F460
:100D60000050C864C86C00F400500590C86C40F096
:100D70000100C864C86C002600F001000590012045
:100D800000900B20CDE9010669464FF0904000F03D
:100D9000B7F9104C0E48C4E900068020A660C4E9EB
:100DA0000360800060618000A0612020E0614FF45A
:100DB00040502062204600F00BF908B1FFF78EFB8F
:100DC000EC64A56206B070BD000004500010024043
:100DD00008000240F42000202DE9F0410446334889
:100DE00017468846806800F01F05206801F04DFC1A
:100DF000002859D194F85000012855D0012084F8DA
:100E00005000002625B1052D02D0092D00D003E0A9
:100E10002046FFF703FB18B184F85060BDE8F0816D
:100E2000606D40F60161884340F480706065204940
:100E30002068884201D11F4900E00146814200D06C
:100E40001DB9606D20F480106065606DC00404D52C
:100E5000A06D20F00600A06500E0A665E16C1648D4
:100E6000C862E16C15480863E16C15484863216865
:100E70001C20086084F850602068416841F010012F
:100E800041602068C16841F00101C16021683B46B2
:100E900042464031E06C00F0FBF821688A68094B5B
:100EA0001A40121D8A60B9E70220B7E70003045018
:100EB000000104500000045029030008AB0300089F
:100EC00091030008C0FFFF7F10B590F825100024A3
:100ED000022903D00421C16301241AE001680A68D1
:100EE00022F00E020A6001680A6822F001020A601C
:100EF00090F84410036C01F01C02012101FA02F287
:100F00005A6080F82510002180F82410816B01B10F
:100F10008847204610BDF0B4016C0C6801680D686C
:100F200090F8442002F01C06042202FA06F3234241
:100F300011D06B070FD50B689B0603D40B6823F009
:100F400004030B6090F8441001F01C018A40016C0E
:100F50004A60016B1DE0022303FA06F727424FF0B7
:100F6000000C4FF0010218D0AF0716D50C68A4068C
:100F700005D40C6824F00A040C6080F8252090F851
:100F8000441001F01C018B40016C4B6080F824C0C0
:100F9000C16A00291AD0F0BC08470823B340234295
:100FA00014D02B0712D50B6823F00E030B6090F8BA
:100FB0004410036C01F01C0102FA01F15960C26394
:100FC00080F8252080F824C0416BE2E7F0BC704730
:100FD00070B568B12B4C036814212B4AA34209D287
:100FE0002A4C1C44B4FBF1F18900C0E910210BE04C
:100FF000012070BD234C64421C44B4FBF1F1890014
:101000004164204908390164022180F825101C68D8
:1010100047F6F0718C43D0E902152943D0E9045614
:101020003543294385692943C5692943056A29430D
:10103000214319608168B1F5804F19D0036C0F21ED
:10104000934202D152F8A83F02E00E4AA032136840
:1010500090F8444004F01C04A1408B43136090F8C6
:101060004430416803F01C03994013681943116030
:101070000021C163012280F8252080F82410084651
:1010800070BD00000804024000000240F8FFFDBFF0
:1010900070B5044690F82400002501280CD00120EA
:1010A00084F8240094F825600020012E06D084F8EE
:1010B00024000225284670BD022070BD022684F857
:1010C0002560E0632068066826F001060660204679
:1010D000FFF7ECF9206B00282068016802D041F08E
:1010E0000E0106E021F0040101602068016841F072
:1010F0000A0101602068016841F001010160D9E73F
:101100002DE9FC4FDFF884A1002301250AF1040B2F
:1011100003244FF00F0C0BF1040EB0E005FA03F7B7
:101120003A406ED04E68012E05D0022E03D0112E0B
:1011300001D0122E17D1D0F808905E0004FA06F8FC
:1011400029EA08090096D1F80C8008FA06F848EA5E
:101150000908C0F808804668BE430F79C7F3001736
:101160009F4037434760C6684FEA430804FA08F7D0
:10117000BE4301978F6807FA08F73743C7604E6888
:10118000022E01D0122E10D1DE0800EB860600964A
:10119000366A5F074FEAD7690CFA09F7BE430F6951
:1011A00007FA09F73743009E37620668019FBE437E
:1011B0000F7907F0030707FA08F7374307604E680F
:1011C000F6005BD5324E376E47F001073766366E54
:1011D00023F0030706F0010600962E4E3E44B1466A
:1011E000B6689F074FEA17780CFA08F7BE43B0F1CC
:1011F000904F04D0284FB84204D101270DE00027BA
:101200000BE03BE0254FB84201D1022705E0244F17
:10121000B84201D1032700E0072707FA08F7374350
:10122000C9F80870DAF800605746D1F80480964390
:101230005FEAC83800D516433E60DBF800605F46C1
:10124000D1F8048096435FEA883800D516433E60A3
:10125000DEF800607746D1F8048096435FEAC8283C
:1012600000D516433E60094F0C373E68D1F8048024
:1012700096435FEA882800D516433E605B1C0E68E3
:101280003246DE407FF44AAF00F00CB80004014063
:10129000001002400000014000040048000800481F
:1012A000000C00481CBCBDE8E08F0AB181617047AA
:1012B000816270470148806870470000400000204C
:1012C00002488168426811448160704740000020F4
:1012D00010B50024032000F071F8002000F008F899
:1012E00008B1012401E000F025F8204610BD0000FF
:1012F00070B50E4E05460024706898B14FF47A71AF
:10130000B1FBF0F00A490968B1FBF0F000F094FD80
:1013100040B9102D06D200222946501E00F02EF8AA
:10132000356000E00124204670BD00004000002030
:101330004C000020094808B5016E41F0010101662A
:10134000016E01F001010091816D41F080518165D4
:10135000806D00F08050009008BD00000010024039
:10136000002809DB00F01F020121914040098000A4
:1013700000F1E020C0F8001170470000F0B40E4BFF
:101380001B680C46C3F30223C3F10705042D00D9E3
:101390000425191D072901D2002300E0DB1E0126C8
:1013A00006FA05F1491E214099409E40761E1640DE
:1013B0003143F0BC01F098BF0CED00E0064900F0AD
:1013C000070208684FF6FF03184040EA0220034A6C
:1013D00010430860704700000CED00E00000FA05C3
:1013E0001649B0F5007F0868C0F3412009D00228F3
:1013F00005D0086820F4C06040F4806008600020D8
:1014000070470128FBD0086820F4C06040F40070E9
:1014100008600B483222006850430A4AB0FBF2F0E1
:10142000401C00E0401E4A69520501D50028F9D150
:1014300048694005E3D50320704700000070004074
:101440004C00002040420F000248006800F4C060D9
:1014500070470000007000400248016841F480714C
:1014600001607047007000400248016841F00401CB
:1014700001607047001002402DE9F84304460068FF
:101480000026774D80035ED5A86D0027C00008D4E4
:10149000A86D40F08050A865A86D012700F080502D
:1014A0000090DFF8C091D9F8001041F48071C9F8BC
:1014B0000010FFF7FFFE804606E000BFFFF7FAFED0
:1014C000A0EB080002282BD8D9F80000C005F5D5FC
:1014D000D5F8900010F4407014D0216B814211D0E7
:1014E000D5F89000D5F8901020F4407041F4803188
:1014F000C5F89010D5F8901021F48031C5F89010FF
:10150000C5F89000C00711D0FFF7D4FE804641F225
:10151000883907E0FFF7CEFEA0EB0801494501D965
:1015200003260BE0D5F890008007F3D5D5F890009E
:10153000216B20F440700843C5F890001FB1A86DDE
:1015400020F08050A8652078C00707D0D5F8880023
:10155000616820F003000843C5F888002078800700
:1015600007D5D5F88800A16820F00C000843C5F81D
:1015700088002078400707D5D5F88800E16820F07A
:1015800030000843C5F888002078800607D5D5F8D4
:101590008800216920F440600843C5F8880020884D
:1015A000800507D5D5F88800216A20F4402008433B
:1015B000C5F888002088400507D5D5F88800616AFD
:1015C00020F440100843C5F888002078400607D56D
:1015D000D5F88800616920F440500843C5F88800B8
:1015E0002078000607D5D5F88800A16920F440408E
:1015F0000843C5F888002088C00507D5D5F88800BD
:10160000E16920F440300843C5F8880020884FF095
:10161000006180040ED5D5F88800A26A20F04060F1
:101620001043C5F88800A06A884203D1E86840F4F6
:101630008010E860206840030ED5D5F88800E26A83
:1016400020F040601043C5F88800E06A884203D16A
:10165000E86840F48010E8603046BDE8F883000098
:1016600000100240007000402DE9F0470F460500D1
:1016700058D0404E306800F00700B84209D23068B8
:1016800020F0070038433060306800F00700B842AF
:1016900048D12878384CC0072CD06868032811D06E
:1016A000022812D0216898B1490500293ADAA168C8
:1016B00021F003010143A160FFF7FCFD804641F2E8
:1016C000883910E021688901EFE721688903ECE798
:1016D0008907EAE7FFF7EEFDA0EB0801494502D9CB
:1016E0000320BDE8F087A068696800F00C00B0EB4B
:1016F000810FEFD12878800705D5A068A96820F070
:10170000F0000843A060306800F00700B8420BD931
:10171000306820F0070038433060306800F0070080
:10172000B84201D00120DCE72878400705D5A06841
:10173000E96820F4E0600843A0602878000706D537
:10174000A068296920F4605040EAC100A06000F060
:101750003FF8A168094AC1F30311515C01F01F0170
:10176000C8400749086007480068BDE8F047FFF730
:10177000BFBD00000020024000100240E03500081C
:101780004C00002040000020054806490068896898
:10179000054AC1F30221515C01F01F01C8407047A6
:1017A0004C00002000100240203600080548064981
:1017B00000688968054AC1F3C221515C01F01F012C
:1017C000C84070474C00002000100240203600083E
:1017D00070B52549002318468A68CC6812F00C02BF
:1017E00004F00306214C4FEA640509D00C2A05D009
:1017F000042A32D0082A00D1284670BD012E10D10B
:101800000B681B0704D4D1F89430C3F3032302E020
:101810000B68C3F30313164E56F82330DAB10C2AC3
:10182000EBD1C86800F00300022818D0032818D0B4
:101830001846CA68CB68C2F30212C3F306234343B7
:10184000521CB3FBF2F2C868C0F34160401C400078
:10185000B2FBF0F070BD184670BD204670BD20464A
:10186000E7E72846E5E70000001002400024F40006
:10187000F03500082DE9F84304006FD0FE4DA8684C
:1018800000F00C06E86800F003072078C00664D575
:1018900076B10C2E01D1012F0AD0E069002828680A
:1018A0007AD040F001002860FFF704FD80465DE03B
:1018B0002868800702D5E0690028DED0616A2868C0
:1018C000000703D5286800F0F00004E0D5F8940084
:1018D000F02202EA1010814216D9084601F022F8DF
:1018E00000283BD1286840F0080028602868616A19
:1018F00020F0F000084328606868216A20F47F40E7
:1019000040EA0120686016E0286840F0080028607E
:101910002868616A20F0F000084328606868216A3E
:1019200020F47F4040EA0120686026B9606A00F038
:10193000F9FF0028D5D1FFF74BFFA968CF4AC1F3C3
:101940000311515C01F01F01C840CD490860CD482A
:101950000068FFF7CDFC00287ED12EE0C4E000BF78
:10196000FFF7A8FCA0EB0800022876D828688007BB
:10197000F6D5286840F0080028602868616A20F0E1
:10198000F000084328606868216A20F47F4040EA3C
:101990000120686011E0FFE720F001002860FFF7F8
:1019A00089FC804606E000BFFFF784FCA0EB08003E
:1019B0000228DAD828688007F6D42078C00740D0FB
:1019C000082E18D00C2E01D1032F14D06068B0F56A
:1019D000803F17D0B0F5A02F286817D020F48030B2
:1019E0002860286820F4802028606068E0B1FFF754
:1019F00061FC804614E02868800322D560680028D6
:101A000072D01EE0286840F48030EDE740F480207A
:101A10002860F7E7FFF74EFCA0EB08006428A4D885
:101A200028688003F6D50CE0FFF744FC804605E00B
:101A3000FFF740FCA0EB0800642896D828688003D4
:101A4000F6D4207880073BD5042E11D00C2E01D17E
:101A5000022F0DD0E06801E0E2E117E100282868DC
:101A60001ED040F480702860FFF724FC07460CE08D
:101A7000286840050CD5E0680028C1D008E000BF08
:101A8000FFF718FCC01B022893D828684005F7D53B
:101A90006868217C20F0FE4040EA016068600FE049
:101AA00020F480702860FFF705FC074605E000BFC2
:101AB000FFF700FCC01B0228B1D828684005F7D406
:101AC0002078000753D560690028D5F894003DD0F0
:101AD000A16900F01002914223D081074FEAC07043
:101AE00003D500288CD001E071E190B1D5F89400C5
:101AF00020F00100C5F89400FFF7DCFB074604E086
:101B0000FFF7D8FBC01B112889D8D5F894008007AF
:101B1000F6D4D5F89400A16920F010000843C5F868
:101B20009400D5F8940040F00100C5F89400FFF748
:101B3000C1FB074605E000BFFFF7BCFBC01B112837
:101B4000A2D8D5F894008007F6D510E020F0010067
:101B5000C5F89400FFF7AEFB074604E0FFF7AAFBC9
:101B6000C01B112890D8D5F894008007F6D42078AF
:101B7000400778D5A86D0027C00008D4A86D40F0B4
:101B80008050A865A86D012700F0805000903E4865
:101B90000168C90512D40168814641F48071016071
:101BA000FFF788FB804605E0FFF784FBA0EB080009
:101BB00002286BD8D9F80000C005F5D5A068C10788
:101BC00020D0D5F8901000F0800021F08001014372
:101BD000C5F89010207A400705D5D5F8900040F060
:101BE0000400C5F89000D5F8900040F0010000BF57
:101BF000C5F89000A06841F28839D0B1FFF75AFBD0
:101C0000804611E0D5F8900020F00100C5F8900062
:101C1000D5F8900020F00400EAE700BFFFF74AFB88
:101C2000A0EB0801494531D8D5F890008007F5D5DB
:101C300014E0FFF73FFB804606E000BFFFF73AFBEA
:101C4000A0EB0801494521D8D5F890008007F5D4CC
:101C5000D5F8900020F08000C5F890001FB1A86D65
:101C600020F08050A8652078800634D5A06A00282E
:101C7000D5F898001ED00AE000100240E0350008B8
:101C80004C00002040000020007000408CE040F03C
:101C90000100C5F89800FFF70DFB074605E000BFFF
:101CA000FFF708FBC01B02287ED8D5F898008007F4
:101CB000F6D510E020F00100C5F89800FFF7FAFA19
:101CC000074604E0FFF7F6FAC01B02286CD8D5F8E7
:101CD00098008007F6D4E06AE8B3022811D00C2EF1
:101CE00075D0286820F080702860E86820F0030034
:101CF000E860E86820F08870E860FFF7DBFA0446E7
:101D000090E0E868226B00F0030191421FD1616B03
:101D100000F0700209011039914218D1A26B00F451
:101D2000FE41B1EB022F12D1A18F00F4C00249088D
:101D30004905A1F50011914209D194F8401000F035
:101D4000C06049084906A1F10071814249D00C2EBA
:101D50006DD0286800E05BE020F080702860FFF71D
:101D6000A9FA064605E000BFFFF7A4FA801B022887
:101D700055D828688001F7D4D4E90C016FF00F0220
:101D800002EB01110843A18F5204490802EB4151B3
:101D9000A26B41EA0221084394F840104FF07E42C2
:101DA000490802EB416100E039E00843E968214A53
:101DB00011400843E860286840F080702860E868B7
:101DC00040F08070E860FFF775FA044605E02EE009
:101DD000FFF770FA001B022821D828688001F7D588
:101DE00023E02868800120D4286840F080702860B3
:101DF000E86840F08070E860FFF75CFA044604E0B1
:101E0000FFF758FA001B022809D828688001F7D587
:101E10000BE000BFFFF74EFA001B022802D9032097
:101E2000BDE8F88328688001F4D40020F8E7012099
:101E3000F6E700008C809FF910B5401EB0F1807F5E
:101E400001D3012010BD4FF0E02460610F21601725
:101E500001F04AFA0020A06107202061002010BD97
:101E600030B590F83C20012A37D0012280F83C2080
:101E7000CA688C6822F4407222434C6822F4806263
:101E800022430C6822F4006222430C6922F480523F
:101E900022434C6922F4005222438C6A22F480428D
:101EA00022430C8B22F4702242EA04420C4D046857
:101EB0000023AC420CD18D8C22F4700242EA055210
:101EC000CD6922F080722A43096A22F000720A4327
:101ED000626480F83C30002030BD022030BD00003C
:101EE000002C0140F0B590F83C20012A29D00124B3
:101EF00080F83C40022280F83D2003685A689D68C3
:101F0000114EB34203D122F470074A683A4322F0DB
:101F100070070A683A435A600268B24205D0B2F1CB
:101F2000804F02D0094B9A4204D1896825F0800382
:101F30001943916080F83D40002180F83C1008462C
:101F4000F0BD0220F0BD0000002C01400040014027
:101F500010B504460068042200F0C4FD2068416CFE
:101F600041F40041416420688168064A1140062915
:101F700006D0B1F5803F03D0016841F00101016056
:101F8000002010BD0700010010B5040003D094F834
:101F90003D0010B107E0012010BD002084F83C0096
:101FA000204600F00DF8022084F83D00211D206835
:101FB00000F062FD012084F83D00002010BD00000B
:101FC00008B50C4A01680C48914207D1016E41F4F2
:101FD00000610166006E00F4006009E0B1F1804F1D
:101FE00007D1816D41F001018165806D00F0010034
:101FF000009008BD002C014000100240022180F832
:102000003D1001688A68084B1A40062A06D0B2F5CE
:10201000803F03D00A6842F001020A60012180F883
:102020003D100020704700000700010070B5044615
:1020300090F83C00012817D0012584F83C5002207C
:1020400084F83D00226890682E4B184020F47F40B1
:1020500090600868502830D00DDC20284DD005DC79
:1020600098B310283BD148E0022070BD302844D0FE
:10207000402834D139E0602828D0702806D0B0F547
:10208000805F2CD0B0F5005F29D10AE0CB68D1E9A0
:102090000121206800F033FD2068816841F077015C
:1020A00009E0CB68D1E90121206800F028FD206813
:1020B000816841F48041816011E0CA684968206804
:1020C00000F0B4FE5021206807E016E0CA684968B5
:1020D000206800F0BCFE6021206800F01AFD84F842
:1020E0003D50002084F83C0070BDCA6849682068F3
:1020F00000F09CFE40212068EFE722680146104670
:10210000EBE7000088FFFEFF10B586B004461421FF
:102110006846FEF7C5F80E492068884215D10D487B
:10212000C16C41F00201C164C06C694600F002005C
:10213000059002200090019000200290032003905F
:10214000012004900448FEF7DBFF06B010BD00003C
:10215000002C0140001002400004004870B5044605
:1021600090F83C000D4601280ED0012684F83C6012
:10217000022084F83D000C2A45D007DC5AB1042A1D
:102180001BD0082A78D12CE0022070BD102A4ED036
:10219000142A71D15DE0206800F0C4FC20688169D8
:1021A00041F0080181612068816921F004018161A9
:1021B000206881692A69114311E0206800F0EEFC73
:1021C0002068816941F4006181612068816921F49E
:1021D00080618161206881692A6941EA0221816107
:1021E0004AE0206800F016FD2068C16941F008014E
:1021F000C1612068C16921F00401C1612068C16921
:102200002A69114311E0206800F03EFD2068C16991
:1022100041F40061C1612068C16921F48061C1613C
:102220002068C1692A6941EA0221C16124E020686D
:1022300000F05AFD2068416D41F0080141652068B9
:10224000416D21F0040141652068416D2A69114307
:1022500011E0206800F076FD2068416D41F40061D6
:1022600041652068416D21F4806141652068416DC0
:102270002A6941EA0221416584F83D60002084F822
:102280003C0070BD10B5040003D094F83D0010B1BF
:1022900007E0012010BD002084F83C00204600F03B
:1022A0000CF8022084F83D00211D206800F0E4FBBA
:1022B000012084F83D00002010BD704770B5044631
:1022C00090F83C00012812D0012584F83C500220EF
:1022D00084F83D00204600F063FD01004FF000004F
:1022E00007D084F83D5084F83C00012070BD0220E6
:1022F00070BD2168CA6822F04002CA602168CA68BD
:1023000022F48042CA6084F83D5084F83C000020EA
:1023100070BD7047704700002DE9F0410268044627
:10232000D0691168936840F60F0528424FF0000508
:1023300005D186067BD58E0679D5216E88E003F01F
:10234000010601F49077374371D0C70707D0CF0556
:1023500005D501271762E26F42F00102E2678207AA
:1023600008D5DA0706D0276802223A62E26F42F007
:102370000402E267420708D5DA0706D02368042280
:102380001A62E26F42F00202E26702070AD501F028
:102390002002324306D0236808221A62E26F42F01C
:1023A0000802E267020509D54A0107D523684FF400
:1023B00000621A62E26F42F02002E267E26F002AD6
:1023C0002ED0800605D5880603D5216E09B120469A
:1023D0008847E06F21688968490602D410F0280F09
:1023E00020D0204600F0DFFD20688168490614D522
:1023F000816821F040018160E06E70B11D49816308
:10240000E06EFEF761FD00280AD0E06E816B00E00F
:102410002046BDE8F041084709E02046FFF77AFF73
:10242000BDE8F0812046FFF775FFE567F8E7C602D3
:1024300009D55B0207D54FF4801010622046BDE835
:10244000F041FFF766BF030605D50B0603D5616EA5
:102450000029DDD1E4E74006E2D54806E0D5116861
:10246000204621F04001116020216167656600F07F
:1024700000F9D5E7932F000810B5040002D0606F73
:1024800010B107E0012010BD002084F87000204644
:1024900000F026F8242060672068016821F001011F
:1024A0000160204600F08EFD0128ECD0606A10B17A
:1024B000204600F0DEFC2068416821F49041416034
:1024C0002068816821F02A0181602068016841F05C
:1024D000010101602046BDE8104000F02EBD000063
:1024E0002DE9F04387B0064614216846FDF7D8FE73
:1024F0002D493068884254D12C48016E41F4804106
:102500000166016E01F480410591C16C41F0010149
:10251000C164C06C4FF0020900F0010005904FF457
:10252000C060CDE9000900250320CDE90250072055
:1025300004904F4669464FF09040FEF7E1FD1D4C78
:102540001B484FF440582060C4E901758027C4E956
:1025500003576561A561C4E907582046FEF738FDB9
:1025600008B1FDF7BBFFF466A6621148124C14389F
:10257000E4E802091020A1C40F4844F81459A561E9
:10258000C4E90758FEF724FD08B1FDF7A7FFB466BC
:10259000002211462520A662FEF7F0FE2520FEF758
:1025A000DFFE07B0BDE8F0830038014000100240B4
:1025B000800402403C210020842100202DE9F843C2
:1025C0000446406F1F4616460D4620284FD1CDB118
:1025D000C6B194F87000012849D0012084F8700039
:1025E0004FF00008C4F87C8021206067FEF762FE8F
:1025F000A4F850608146A4F85260A068B0F5805FEE
:1026000003D004E00120BDE8F883206928B12E46FC
:102610005FF0000584F8708010E00026FAE7802162
:10262000204600F0F3FDB8B9C6B116F8010B2168D9
:102630000885B4F85200401EA4F85200B4F85200C5
:102640004B464FF0000200970028E8D14FF04001C0
:10265000204600F0DBFD30B10320D4E735F8020B53
:10266000C0F30800E3E7202060670020CBE70220EA
:10267000C9E77047FEE700EB8100006E00F0F8400C
:1026800070478068C0F3C00070478068C0F3800066
:1026900070478068C0F380007047C06810F4406FD6
:1026A00001D00020704701207047042303EAD15372
:1026B00010B518444369C1F3045107248C40A34367
:1026C0008A401343436110BD00EB8100016E21F08D
:1026D000004111430166704730B589B0002406946B
:1026E0000794182168460894FDF7DAFD1B481A493B
:1026F0000425C0E900148460C460C0E90445047680
:1027000044760121C16180F820404FF4D862C0E9CD
:1027100009128A02C26280F83010446380F838409F
:10272000FEF732FA079406A90C480894FDF720FF3B
:102730000B4800900620CDE901047F200594CDE9E7
:10274000030569460548FDF77DFF7F210348FDF736
:10275000C7FE09B030BD000000000450901F0020EB
:102760002000F01410B586B014216846FDF798FDDE
:102770001548C16C41F00401C164C16C01F0040151
:102780000591C16C41F00101C164C16C01F001010E
:102790000591C16C41F00201C164C06C0B4C00F0AA
:1027A00002000590002208212046FEF77EFD082049
:1027B000009001200021CDE90101039169462046E6
:1027C000FEF79EFC06B010BD001002400004004859
:1027D00010B59AB000241794189415941694129476
:1027E00013941C210BA81494FDF75AFD2C21684664
:1027F000FDF756FD2348224901600121C0E901147B
:1028000049F63F41C0E9031444618461FFF7BCFB12
:102810004FF48050159015A91A48FFF707FC194886
:10282000FFF730FD2020CDE9120412A915481494B9
:10283000FFF758FB60200B9044F61F60CDE90C04B5
:102840000E940F94109408220BA90E481194FFF7D0
:1028500085FC00944FF40050CDE9044001940294AB
:10286000039400030694CDE907400994694605489E
:102870000A94FFF7F5FA0348FFF746FC1AB010BDBB
:10288000002C0140F41F002010B58CB000240594EA
:1028900006940794142168460894FDF701FD134837
:1028A00009940A944FF080410B94C0E90014272149
:1028B000C0E9024104618461FFF766FB4FF4805078
:1028C000059005A90948FFF7B1FB0620CDE90004F2
:1028D00069460648FFF7F2FC2020099009A90B94ED
:1028E0000248FFF7FFFA0CB010BD000034200020B2
:1028F0000948084901604FF4E131416000218160DD
:102900000C22C160C0E904128161C16101624162AF
:10291000FFF7B2BD0038014074200020FEE7704789
:1029200070470000F8B51C4D06460024A86DC00095
:1029300002D5FEF789FD0DE0A86D40F08050A86536
:10294000A86D00F080500090FEF77EFDA96D21F08B
:102950008051A965B0F5007F04D0802E07D94FF0D3
:1029600003040AE0802E08D9A02E01D804E001D18A
:10297000022402E0702E00D101240848016821F0F1
:10298000070121430160006800F00700A04201D068
:102990000120F8BD0020F8BD0010024000200240D8
:1029A0007047FEF78DBC000010B5A4B04421684606
:1029B000FDF776FC14211EA8FDF772FC342111A846
:1029C000FDF76EFCFEF748FD194850F8901F21F006
:1029D000180101604FF40070FEF702FD1420009012
:1029E0000024A020CDE90840012102910791022096
:1029F000CDE90B010A21CDE90D010F901090684639
:102A0000FEF738FF0F201E900320CDE91F0421940C
:102A100004211EA82294FEF727FE44F20100CDE90E
:102A2000110411A8FEF728FDFEF71EFD24B010BD0D
:102A3000001002400D48016841F4700101600C482B
:102A4000016841F001010160002181600268094BC9
:102A50001A4002608214C260026822F4802202607E
:102A600081610249C00380390860704788ED00E049
:102A700000100240FFFFF6EA70B50268164B4FF0F7
:102A80008046984201D0B04203D122F070044A68D7
:102A90002243124C124D984205D0B04203D0A042BE
:102AA00001D0A84203D122F44076CA6832434E696D
:102AB00022F08002324302608A68C2620A6882623F
:102AC000984203D0A04201D0A84201D10969016314
:102AD0000121416170BD0000002C01400040014017
:102AE0000044014010B501F01F030421046A99401D
:102AF0008C430462016A9A401143016210BD10B513
:102B0000846842EA032224F47F440A432243826019
:102B100010BD826822F070020A4342F00701816012
:102B200070470000F0B5026A22F001020262056AF5
:102B300043688269154C25F0020522400C6822F09A
:102B4000030214438A68134E2A43114D124FA842C0
:102B500003D0B04201D0B84206D122F0080CCA68B6
:102B600042EA0C0222F00402A84203D0B04201D093
:102B7000B84205D14D6923F440731D438B692B4343
:102B800043608461496841630262F0BD8FFFFEFFCC
:102B9000002C0140004001400044014030B5026A71
:102BA00022F010020262046A42688369154D2B40CC
:102BB0000D6823F4407343EA052524F020038C6854
:102BC00043EA0413104CA04207D1CC6823F08003E1
:102BD00043EA041323F0400305E00C4CA04202D06A
:102BE0000B4CA04207D14C6922F4406242EA8402B5
:102BF0008C6942EA840242608561496881630362AC
:102C000030BD0000FF8FFFFE002C0140004001405E
:102C10000044014030B5026A22F480720262046A04
:102C20004268C369144D2B400D6823F003031D4314
:102C300024F400738C6843EA0423104CA04207D1AB
:102C4000CC6823F4006343EA042323F4806305E0A3
:102C50000B4CA04202D00B4CA04207D14C6922F48D
:102C6000405242EA04128C6942EA04124260C56191
:102C70004968C163036230BD8FFFFEFF002C014035
:102C8000004001400044014030B5026A22F4805205
:102C90000262046A4268C3690F4D24F400542B4059
:102CA0000D6823F4407343EA05238D6844EA053434
:102CB0000A4DA84205D00A4DA84202D0094DA842AB
:102CC00004D14D6922F4804242EA85124260C36118
:102CD00049680164046230BDFF8FFFFE002C014093
:102CE000004001400044014030B5026A22F48032C5
:102CF0000262046A4268436D0E4D2B400D681D430D
:102D000024F400330C8943EA04430B4CA04205D061
:102D10000A4CA04202D00A4CA04204D14C6922F4D1
:102D2000803242EA04224260456549688165036257
:102D300030BD00008FFFFEFF002C0140004001402D
:102D40000044014030B5026A22F480120262046A33
:102D50004268436D0E4D24F400142B400D6843EA85
:102D600005230D8944EA05540A4DA84205D00A4DB1
:102D7000A84202D0094DA84204D14D6922F4802214
:102D800042EA8522426043654968C165046230BDFC
:102D9000FF8FFFFE002C0140004001400044014035
:102DA00010B50468A26822F070034A681A431E4BEB
:102DB0001A400B681343A3604A6812F00F0F30D11A
:102DC0001211082A2DD2DFE802F02C2C2C2C0B211A
:102DD00027040B69D1E902210068FFF790FE20E08B
:102DE0000A68052A10D00268136A146A24F00104E4
:102DF000146202689469096924F0F00444EA01113C
:102E00009161006803620CE0012010BD0A698968C5
:102E1000006800F00BF804E00A698968006800F0B7
:102E200016F8002010BD0000F8FFFEFF10B5036A81
:102E3000046A24F001040462846924F0F00444EA82
:102E4000021423F00A020A438461026210BD10B525
:102E5000036A23F0100303628369046A23F4704356
:102E600043EA023224F0A00343EA011182610162C5
:102E700010BD90F82410C90706D001684A68836A1B
:102E800022F400321A434A6090F82410890706D5CC
:102E900001684A68C36A22F480321A434A6090F893
:102EA0002410490706D501684A68036B22F4802282
:102EB0001A434A6090F82410090706D501684A6849
:102EC000436B22F400421A434A6090F82410C9066A
:102ED00006D501688A68836B22F480521A438A609F
:102EE00090F82410890606D501688A68C36B22F41D
:102EF00000521A438A6090F82410490611D50168DF
:102F00004A68036C22F480121A434A60016CB1F5DE
:102F1000801F06D101684A68436C22F4C0021A433C
:102F20004A6090F82410090606D501684A68806C4A
:102F300022F4002202434A607047F8B50026044696
:102F4000C667FEF7B7F90546206800686FF07E4750
:102F5000000708D52B4600224FF4001120460097A9
:102F600000F054F960B92068006840070AD52B4684
:102F700000224FF480012046009700F047F908B185
:102F80000320F8BD20206067A06784F870600020EF
:102F9000F8BD10B5806A0021A0F85A10A0F85210B0
:102FA000FFF7B8F910BD01680A6822F490720A6050
:102FB00001688A6822F001028A602021816700216D
:102FC000016670472DE9F041044601688068236975
:102FD000E5691843636900272B431843814A0B684E
:102FE000814D2B4003430B6020684168E36821F466
:102FF0004051194341602168A069914201D0236A80
:1030000018438B6823F4306303438B60774B21684C
:10301000774899420DD1D0F8880010F0030006D00F
:10302000012847D0022843D0032830D144E00125AD
:103030002EE0704B99420BD1D0F8880010F00C00B4
:1030400034D0042836D0082832D00C281FD133E0E1
:10305000694B99420BD1D0F8880010F0300025D090
:10306000102827D0202823D0302810D124E09142E6
:103070000DD1D0F8880010F4406017D0B0F5806F03
:1030800018D0B0F5006F13D0B0F5406F14D01025F4
:103090005A4B00264FF40040914245D175B1022DA4
:1030A0000FD0042D0FD0082D18D10FE00025EFE729
:1030B0000225EDE70425EBE70825E9E7FEF764FBC9
:1030C00003E0184602E0FEF783FBA8B3626802EB58
:1030D0004201814202D8B0EB023F01D901276EE0E4
:1030E000DFF81C815DB1022D0CD0042D13D0082D0A
:1030F000F4D150082905401846F1000105E0FEF71B
:1031000043FB0AE050083F49F5E70023FDF75CF870
:10311000A0F540714FE0FEF75BFB6268010E030211
:10312000500818187141F0E7E1694FF6EF788142D5
:103130002ED1092DD2D200E041E0DFE805F00609EA
:103140001F05220505052500C8E7FEF71DFB01E068
:10315000FEF72CFB4100606801EB5001B1FBF0F081
:1031600080B2A0F110014145B8D84FF6F07101408E
:10317000C0F3420001432068C16020E0224960683A
:10318000EAE7FEF725FBE5E74FF480316068E3E707
:10319000092DA3D2DFE805F0060918051E0505056F
:1031A00020009BE7FEF7F0FA16E0FEF7FFFA13E0C7
:1031B00080B2A0F11001414590D82168C860266610
:1031C00038466666BDE8F081606803EB5001B1FBEC
:1031D000F0F0EDE7FEF7FCFA616800EB5100B0FBA0
:1031E000F1F0E5E700800040F369FFEF00380140AF
:1031F0000010024000440040004800400024F40059
:10320000FFFC0F00000024F40048E8012DE9F0471E
:103210009A4617460E4604464FF000094FF0200824
:10322000089D39E0681C37D0FEF744F8A0EB0A008F
:10323000A84222D80DB32068016849072CD5C0697F
:10324000C043000528D421684FF40060086220685C
:10325000016821F4D07101602068816821F00101CA
:103260008160C4F87480C4F87880C4F87C8000BFA2
:1032700084F870900320BDE8F0872068016821F48D
:10328000D07101602068816821F001018160C4F87B
:103290007480C4F87880EBE72068C06936EA0000E3
:1032A00004D00020B842BDD00020E4E70120F9E7B7
:1032B0000148FFF731B8000074200020FEE700004D
:1032C0000FB4084B10B504A902AA039800F02CF81B
:1032D000044602A9002000F040F9204610BC5DF829
:1032E00014FB00005B3500080907090E002804DB09
:1032F00000F1E02080F80014704700F00F0000F1AA
:10330000E02080F8141D704702E008C8121F08C1B1
:10331000002AFAD170477047002001E001C1121F56
:10332000002AFBD1704700002DE9FF4F8BB09A4671
:103330000F460446002606E025280BD052460D997C
:103340009047641C761C20780028F5D10FB03046D9
:1033500000F000B90025A94601227D4900E005439F
:1033600014F8013F203B02FA03F00842F7D120781D
:103370002E2817D114F8010F45F004052A280ED085
:103380006FF02F022078A0F1300109290AD809EB4B
:10339000890102EB410100EB0109641CF2E757F8D7
:1033A000049B641C20786C280DD004DC4C2812D0BF
:1033B0006A2811D104E074280DD07A280CD10AE0D3
:1033C00045F4001507E0617845F48015814202D18B
:1033D000641C05F58015641C207869283ED006DC45
:1033E0000028B3D063280BD0642804D136E07328BA
:1033F00010D075285CD052460D999047761CA5E0F8
:1034000017F8040B8DF8000000208DF80100E84645
:10341000012003E057F8048B4FF0FF3069074FF0AD
:10342000000501D40AE06D1C4D450DDA8542FADB3A
:1034300018F805100029F6D106E06D1C8542FCDB6A
:1034400018F805100029F8D12E4404E018F8010BF3
:1034500052460D9990476D1EF8D277E000200A90F1
:10346000C5F302504FF00A0B02280CD001CFC11750
:10347000021E71F100020CDA0023D0EB030063EBB3
:1034800001012D2208E0FF1D27F00707F7E80201E0
:10349000EEE72A0504D52B228DF82420012203E033
:1034A000EA070FD02022F7E70DF12008089218E074
:1034B00000200A90C5F302504FF00A0B022803D0F7
:1034C00001CF00210022EFE7FF1D27F00707F7E8F3
:1034D0000201F7E75A460A9BFCF776FE303208F8FD
:1034E000012D50EA0102F5D1ADEB080000F1200BEF
:1034F000680701D44FF00109D94502DDA9EB0B00A3
:1035000000E000208146002506E009A85246405D03
:103510000D9990476D1C761C08988542F5DB04E0F8
:10352000302052460D999047761CB9F10001A9F15F
:103530000109F5DC05E018F8010B52460D9990479A
:10354000761CBBF10001ABF1010BF4DC641CFAE664
:103550000928010030BCBDE8C08F0A68531C0B600D
:103560001070704708B5FDF7B3FEFFF71DFAFFF7BF
:10357000F9F81848816C41F001018164816C01F017
:1035800001010091816C41F002018164806C002294
:1035900000F00200009011460B20FDF7EFFE0B201B
:1035A000FDF7DEFEFFF798F8FFF712F9FFF76CF969
:1035B000FFF79EF908494FF4FA6201F5FA50FDF75A
:1035C0000BFC08210548FEF7C3FC04484030FEF719
:1035D00015FDFEE70010024050000020F41F0020FF
:1035E00000000000000000000102030406070809B3
:1035F000A0860100400D0300801A060000350C0073
:1036000040420F0080841E0000093D0000127A0035
:103610000024F40000366E010048E801006CDC0272
:1036200000000000010203044836000800000020EA
:1036300050000000083300089836000850000020B1
:103640008025000018330008F3000000000100008E
:103650000200000000000000000000000000000068
:10366000000000000000000000000000000000005A
:10367000000000000000000000000000000000004A
:103680000000000000000000100000000100000029
:083690000000000000093D00EC
:040000050800018D61
:00000001FF
